:020000040800F2
:10000000F8080020350200083D0200083F02000801
:1000100041020008430200084502000800000000F9
:10002000000000000000000000000000470200087F
:1000300049020008000000004B0200084D020008C1
:100040004F0200084F0200084F0200084F0200084C
:100050004F0200084F0200084F0200084F0200083C
:100060004F0200084F0200084F0200084F0200082C
:100070004F0200084F0200084F0200084F0200081C
:100080004F0200084F0200084F0200084F0200080C
:100090004F0200084F0200084F0200084F020008FC
:1000A0004F0200084F0200084F0200084F020008EC
:1000B0004F0200084F0200084F0200084F020008DC
:1000C0004F0200084F0200084F0200084F020008CC
:1000D0004F0200084F0200085D2600084F0200088A
:1000E0004F0200084F0200084F02000800F002F81B
:1000F00000F090F80AA090E8000C82448344AAF132
:100100000107DA4501D100F085F8AFF2090EBAE82F
:100110000F0013F0010F18BFFB1A43F0010318473B
:10012000E833000008340000103A24BF78C878C1D2
:10013000FAD8520724BF30C830C144BF04680C60ED
:10014000704700000023002400250026103A28BF35
:1001500078C1FBD8520728BF30C148BF0B60704739
:100160006E2900F00982702900F04B83662902F0A5
:10017000E187652902F0DE87672902F0DB876129C4
:1001800002F0DA8703681B0A28BF41F08001692961
:1001900000F0B681642900F0B381752900F0B081C8
:1001A0006F2900F0D982782900F01783E92900F03F
:1001B0007382E42900F07082F52900F06D82EF2946
:1001C00000F0D682F82900F016830368DB0928BF07
:1001D00041F08001632901F0B380732901F0B880F8
:1001E000E32901F0C380F32901F0C88000207047A3
:1001F0001FB500F06DFC04000020002102F06EFF2E
:10020000401C60600020002102F07EFFE0601FBD06
:1002100010B510BD01F02DF91146FFF7E9FF02F00E
:1002200019FB01F0FDF903B4FFF7F2FF03BC01F085
:1002300001FA00000948804709480047FEE7FEE749
:10024000FEE7FEE7FEE7FEE7FEE7FEE7FEE7FEE786
:1002500004480549054A064B704700003D25000843
:10026000ED000008F8020020F8080020F804002043
:10027000F804002010B5044600F0D4F80068005DD2
:10028000000704D5DF2C02D0A4F1200010BD2046C9
:1002900010BD00000FB41CB5084B06AA7B4469468C
:1002A0000090059800F081F904460020694600F0AE
:1002B0008FF920461CBC5DF814FB000031030000E0
:1002C0002DE9F04791460F4680460446002614F873
:1002D000015B2DB100F0A6F80068405DC007F6D1C3
:1002E0002B2D02D02D2D18D0641E4A4639462046AB
:1002F00000F056FB27B13968A14201D1C7F8008050
:100300004FF0020471050BD54042002803DD00F0D8
:1003100091F80460A007BDE8F08746F48066E4E742
:100320000028F8DA00F086F804606FF00040F2E789
:10033000002800DA40427047014A00F081BB00000B
:100340000000002010B5044610F0030F08BF11F0A4
:10035000030F40F015804FF0013E121FC0F20E80D7
:1003600051F8043BA3EB0E0C2CEA030C1CEACE1C48
:1003700008BF40F8043BF0D0A1F1040102F10402EF
:10038000521E08DB11F8013B00F8013B002BF7D1AE
:10039000114600F077FB204610BD00004FF0013CF5
:1003A00050F8042B51F8043B9A4221D1A2EB0C03E4
:1003B000934313EACC1317D150F8042B51F8043BA4
:1003C0009A4215D1A2EB0C03934313EACC130BD141
:1003D00050F8042B51F8043B9A4209D1A2EB0C03CC
:1003E000934313EACC13DBD04FF00000704700BFFB
:1003F000D01A01BAB1FA81F101F0180122FA01F024
:10040000CB40DBB2C0B2C01AC1F120012CFA01F31B
:10041000D11A914311EAC311E6D170477047704772
:100420007047000010B500F053FB001D10BD00BF69
:10043000AD2C0000004870470800002070B504464D
:1004400085690068C10601D5302600E02026C00776
:1004500007D070BDD4E9012130469047206A401C86
:1004600020626D1EF6D570BD70B5044685690078B2
:10047000C00707D170BDD4E9012120209047206A30
:10048000401C20626D1EF6D570BD09684A0501D575
:1004900040B27047C905FCD500B2704709684A05EB
:1004A00001D5C0B27047C905FCD580B2704770B5A0
:1004B0000C460546012A05D02878800600D5EA6951
:1004C000002302E0012305E05B1C934202D2E05CC2
:1004D0000028F9D1A869E618C01AA861286A18444A
:1004E00028622846FFF7AAFF04E0D5E9012114F8A5
:1004F000010B9047B442F8D32846FFF7B5FF70BD13
:100500002DE9F0410646002410687529314616A5EC
:1005100010D0FFF7BAFF002802DA404213A507E027
:1005200031688A0701D512A502E0490704D511A553
:10053000012401E0FFF7B2FF00210A2206F124079F
:1005400009E0B0FBF2FCB0FBF2F302FB1C00303020
:1005500078541846491C0028F3D123462A463046D1
:10056000BDE8F04100F0FDBA000000002D000000E1
:100570002B0000002000000011680268006A53058B
:1005800001D508700AE0D30501D5088006E01306FE
:1005900003D5C217C1E9000200E0086001207047DE
:1005A00001694A1C02610878704700B58FB0CDE937
:1005B00001310021059105497944CDE90310114627
:1005C000684600F029F90FB000BD0000E5FFFFFF0D
:1005D0000A6802F8010B0A60704700002DE9FF5F0E
:1005E00015468A460446DFF8AC80F8440027D8E96F
:1005F00000103E46CDE9001010E03AF816106A46A9
:1006000002A800F0CDFE411C07D02178890603D551
:10061000E269391891420DD80744761C207880068B
:1006200002D5E069B84205DDAE42E6DB3AF81600D5
:100630000028E2D1A069C01BA0612046FFF7FEFEA2
:10064000D8E90010CDE90010002017E03AF81810A2
:100650006A4602A800F0A4FEB0F1FF3F81460BD02D
:1006600000250DF1080B05E0D4E901211BF8050078
:1006700090476D1C4D45F7D308F10100B04280460C
:10068000E4DB206A384420622046FFF7EDFEBDE837
:10069000FF9F00004E2B00002DE9F0418046D21D47
:1006A00022F007020025D2E90002F52915A614D090
:1006B000011E72F1000106DA0023D0EB030063EBA8
:1006C000020211A608E0D8F800108B0701D50FA68A
:1006D00002E0490701D50EA601251146002408F1C4
:1006E000240704E000F0F8F930323A55641C50EA6F
:1006F0000102F7D12B46324621464046BDE8F04183
:1007000000F02FBA000000002D0000002B000000B8
:100710002000000030B4002100F1240408E002F0C1
:100720000705D208303542EA4372DB086554491C9C
:1007300052EA0305F3D10468002310A2250708D567
:1007400004F020040C4304D0C46901230CA2641EED
:10075000C46130BC00F005BA10B5044621461068EB
:10076000FFF79CFE02462046BDE810400023D1E77B
:10077000D21D22F00701D1E90023CBE700000000E1
:1007800030000000F0B40D460188090502D5214C67
:100790007C4402E01F4C7C440E34002100F124060E
:1007A00008E002F00F071209E75D42EA03721B0935
:1007B0007754491C52EA0307F3D102780023120749
:1007C00004D5702D06D009B1022311342246F0BCA5
:1007D00000F0C7B901231034F8E770B504460D46A0
:1007E00021461068FFF75AFE024629462046BDE81A
:1007F00070400023C6E7D21D22F00703D3E900238F
:10080000C0E70368126843F0200303600823C36154
:100810000023B7E7B02900002DE9F05F89460446C0
:100820004FF0000ADFF874B1FB44C0F820A0204666
:10083000E1688847002874D0252806D0D4E9012132
:100840009047206A401C2062F1E700265F46204660
:10085000E16888472028054607DB312D05D2781945
:1008600010F8200C08B10643F1E7B00701D526F0D7
:100870000406C4F81CA00027C4F818A02A2D09D02B
:10088000284602F023FC38B304EB8708303DC8F853
:10089000185019E059F8041B204604EB87029161B7
:1008A000E1688847012F054618D1E069002820DA61
:1008B00026F020061DE0D8F8180000EB800005EBBC
:1008C00040003038C8F818002046E16888470546DF
:1008D00002F0FCFB0028EED1012F0AD02E2D08D10A
:1008E0002046E16888477F1C0546022F46F0200617
:1008F000C4DBA069002803DA404246F00106A0618B
:10090000F00701D026F010066C2D0BD0682D09D011
:100910004C2D39D06A2D35D0742D35D07A2D33D069
:1009200016E038E0E1682F4620468847B842054681
:1009300009D16C2F26D04FF48060E1680643204631
:100940008847054604E06C2F1AD04FF480700643A8
:100950000DB3A5F14100192802D8203546F40066F0
:100960004A462946204626604E46FFF7F9FB80B1ED
:1009700001280BD0F61D26F0070000F1080956E704
:100980004020E4E78020D8E70020D6E706F10409FC
:100990004DE7284652E7206ABDE8F09F4029000055
:1009A0002DE9F05F824615468B4600270AF10104C7
:1009B000B9460078302801D09DB113E014F8010B3E
:1009C0000127782803D0582801D045B10AE00DB19D
:1009D000102D07D1002714F8010B102502E008257F
:1009E00000E00A250026B0460EE005FB080005FBE6
:1009F00006F101271FFA80F801EB1046B6F5803F9B
:100A000000D3B94614F8010B294600F0BBFC0028BE
:100A1000EBDABBF1000F05D00FB1641E00E05446C5
:100A2000CBF80040B9F1000F06D0FFF703FD02211B
:100A30000160C81EBDE8F09F48EA0640FAE70000E2
:100A40002DE9F04115460E46040002D12C6804B988
:100A50000BA4204600F0D8FC0444207870B127464F
:100A60003146384600F0C0FC0444207810B1002024
:100A700004F8010B38462C60BDE8F0810027F9E747
:100A8000000000004FF000020429C0F0128010F0B6
:100A9000030C00F0C984CCF1040CBCF1020F18BFA8
:100AA00000F8012BA8BF20F8022BA1EB0C0100F0ED
:100AB000BBBC5FEAC17C24BF00F8012B00F8012B0E
:100AC00048BF00F8012B704700487047080000201D
:100AD000004870472800002030B5B0F10A0271F1DB
:100AE00000034FEA900E4EEA817EB0EB0E0061EB00
:100AF00091014FEA101E4EEA017E10EB0E0041EB11
:100B000011114FEA102E4EEA016E10EB0E0041EB70
:100B100011214FEA104E4EEA014E10EB0E0041EB50
:100B20001141401841F100014FEAD00040EA417004
:100B30004FEAD1014FEA810444EA907410EB80053A
:100B400044EB01046D1944EB0404521BA3414FF024
:100B5000000348BF0A3200D530BD401C41F10001FE
:100B600030BD2DE9F0470D4699469246044600F106
:100B700024080168880604D5E06921F0100121608D
:100B800000E00120A84201DD471B00E00027A16929
:100B90007A1902EB0900081AA0612078C00602D475
:100BA0002046FFF74BFC002608E0D4E901211AF8A3
:100BB00006009047206A401C761C20624E45F4DBFC
:100BC0002078C0060AD52046FFF738FC06E0D4E9B5
:100BD000012130209047206A401C2062381EA7F176
:100BE0000107F4DC07E0D4E9012118F8050090477B
:100BF000206A401C2062281EA5F10105F3DC204676
:100C0000FFF732FC2078000602D50220BDE8F0870D
:100C10000120FBE72DE9FF4F0C461E464FF0FF3742
:100C20008BB0D2E90001DDF860800A908A46C1F3FA
:100C30000A5505B93D46002108464FF00000BAF1BB
:100C4000000F00F4400005DA00EB80004FF4400193
:100C500001EA50004FEA9059B9F1010F00DDB946A1
:100C60000A9850EA4A000ED044F61050A5F2FF351B
:100C700045432F14B8F1000F1ED07542291E1EDD0A
:100C8000C9F100021CE0B8F1010F4FF0000001D0E3
:100C9000302103E0F24305E02154401CB042FBDB6D
:100CA00030460022002121540B99C1F80880C1E987
:100CB00000200FB0BDE8F08FBD1B6D1CDEE74A467B
:100CC00000DA694206A800F039FC06AB93E8070099
:100CD00003AB83E8070050460A9901F01BFE8DE83C
:100CE0000700A0F500501F3800900398002D0ADD82
:100CF00042F21F014A460844002303A903906846B4
:100D000002F084F809E0A0F500504A461F3800239D
:100D100003A90390684602F08EF88DE807000004EE
:100D2000000C03D04FF0FF30410800E01046B8F14E
:100D3000000F03D00022009215461EE0751E05D458
:100D4000FFF7CAFE303262556D1EF9D5B346012257
:100D5000084302D000227F1C04E02078302801D113
:100D600000227F1E002A099784D01DE0112D07DA8A
:100D7000FFF7B2FE303262556D1C50EA0102F5D128
:100D8000084302D00098C8B10EE00021681E05E0BB
:100D9000235C625C63542254401E491C8142F7DB91
:100DA000AB46A81B401E0990002004F80B000B98CE
:100DB000099AC0F80880C0E9002B7AE711264FF0A5
:100DC000000857E72DE9F04F88460446D21D22F06F
:100DD000070191B0D1E90001CDE90A0102F062F901
:100DE00002460B98C00F01D02D2007E02068810734
:100DF00001D52B2002E0202101EAC000032A09903E
:100E000001D0072A05DB03464146204600F056FB89
:100E10000BE12078800601D5E06900E00620B8F1FA
:100E2000650F814606D0B8F1660F18D0B8F1670F8C
:100E300070D131E00020B9F1110F009001DB1123D6
:100E400001E009F101030AAA01A90CA8FFF7E2FEDB
:100E5000DDE90C70002609F10105834647E0012019
:100E60004B4600904FF000470AAA01A90CA8FFF7D3
:100E7000D1FEDDE90DB00C995D46002610B909F1EF
:100E800001000D18B9EB050003D4C0F1FF3609F1DC
:100E90000105A5EB09002BE0B9F1010F01DA4FF0D4
:100EA00001090020B9F1110F0090484601DD11231E
:100EB00000E003460AAA01A90CA8FFF7ABFEDDE992
:100EC0000C704D4600268346207800070AD4AB45B7
:100ED00000DA5D4601A8012D04DD411911F8011C5D
:100EE000302907D04F4502DA17F1040F04DA012048
:100EF00082460FE06D1EEEE7002F02DCED1B3E4444
:100F000003E0781CA84200DD7D1CB81B00F1010A3B
:100F10004FF000472078000703D4AA4501DB4FF0CB
:100F2000FF3A0021B7F1004F0DF143088DF843104F
:100F300024D002202B23002F01DA7F422D230A2107
:100F4000021EA0F1010000DC5FB197FBF1FC97FBF2
:100F5000F1F201FB1C7C17460CF1300C08F801CDB6
:100F6000EEE7A8F1010003702188090501D54521AC
:100F700000E06521A0F1010800F8011C09980FA903
:100F8000A1EB0807FF1D00B10120411901EBEA7038
:100F9000A1693844081A401EA0612078C00602D416
:100FA0002046FFF74BFA099828B1D4E90121904770
:100FB000206A401C20622078C00622D52046FFF718
:100FC0003DFA1EE0002E04DBB34502DD01A8805D82
:100FD00000E03020D4E901219047206A401C2062C3
:100FE000761CAAF101005FEA000A0AD1FFF770FD42
:100FF000C0680168405CD4E901219047206A401C28
:101000002062281EA5F10105DCDC07E0D4E90121FE
:1010100018F8010B9047206A401C2062381EA7F187
:101020000107F3DC2046FFF71FFA032011B041E669
:101030002DE9F04F04460D46D21D22F0070089B07D
:10104000D0E900974846394602F02CF80246F80FDE
:1010500001D02D2307E02068810701D52B2302E072
:10106000202101EAC0038DF820300BB1012000E0FF
:101070000020032A824601D0072A04DB29462046A5
:1010800000F01CFA3FE12078800601D40D2500E035
:10109000E569C7F30A560D2D49DA00214FEA175BBF
:1010A00008464FF00000002F00F4400007DA00EB84
:1010B00080004FF4400100EBD07001EA6000811520
:1010C000012901DD4FF0FF3100224FEA850CBCF110
:1010D000180F06D31346ACF118004FF08052C240EF
:1010E00003E04FF4801323FA0CF30CF10C0CBCF169
:1010F000200F04D3ACF1200C09FA0CF001E007FA40
:101100000CF000294FF0004801DD18B90FE00ED1B6
:1011100040450CD319EB02095F4121B9404502D18A
:101120009F4329EA0209BBEB175F00D0761C208899
:10113000000502D57B48784402E07A4878441938A3
:1011400008AA302302F80A30037C0AF10101002EBC
:101150000AF1020A53546A4602DC4FF0300101E002
:101160004FF031014FF001088DF8001002D0A6F2C7
:10117000FF3603E059EA470100D06B4E002D02DC38
:101180002178090704D54FF002082E218DF80110AF
:10119000C44600210BE0C7F303433F01C35C491C75
:1011A0006D1E02F80830052908F1010801DA002D4A
:1011B000F1DC00210CE000EB1973491C1B786D1E5B
:1011C000082902F808304FEA091908F1010801DA84
:1011D000002DF0DC21688B0602D516E0A8F101088D
:1011E000E04505DD02EB080313F8013C302BF5D098
:1011F000B8F1000F09DD02EB080313F8013C2E2BB8
:1012000003D1090701D4A8F10108002D05DD3E2115
:1012100002F808106D1E08F10108407C002E02F84B
:10122000080008F1010804DA2D20764202F80800CF
:1012300002E02B2002F808000A214FF47A7086425F
:1012400008F101080BDB96FBF0F3303302F80830AD
:1012500096FBF0F308F1010800FB136601E0642E31
:101260000CDB642096FBF0F3303302F8083096FB79
:10127000F0F308F1010800FB136601E00A2E06DB1B
:1012800096FBF1F0303002F8080008F1010896FBF7
:10129000F1F001FB1060303002F80800A16908F19C
:1012A000010808EB050202EB0A00081AA061207889
:1012B000C00602D42046FFF7C1F8216A08AE01EB50
:1012C0000A00206204E0D4E9012116F8010B9047DE
:1012D000BAF1010AF7D22078C00602D52046FFF7FE
:1012E000ADF86E4609E016F8010B3E280FD0D4E9A0
:1012F00001219047206A401C2062B8F10108F2D217
:101300002046FFF7B1F809B00320BDE8F08F206A4E
:101310002844206203E0D4E90121302090476D1E6B
:10132000EBD3F8E75620000002FCFFFF10B543693D
:1013300013B1AFF3008001E0FFF7B9F8012010BD51
:10134000127800F124010A7000224A700122EDE7B0
:1013500011684FF0FF32E9E710B5436913B1AFF3FD
:10136000008001E0FFF73AF9012010BD128800F17A
:10137000240182840022C2840122EDE711684FF02B
:10138000FF32E9E73A2800D2303820F02002412A23
:1013900001D3A2F13700884201D34FF0FF307047EC
:1013A0002DE9F04116460C460546FFF73BF8036869
:1013B00093F80101012807D0FF2C12D8185D80B1E5
:1013C00001202C70BDE8F081D3F807013246214698
:1013D00003F20713C7182846BC46BDE8F0410023B6
:1013E00060474FF0FF30EDE730B503461D781DB183
:1013F0000A4603E0AC4201D1181A30BD12F8014B85
:10140000002CF7D15B1CF1E730B503461D783DB1E8
:101410000A4612F8014B1CB1AC42FAD15B1CF5E74D
:10142000181A30BD4FF0000200B513469446964698
:10143000203922BFA0E80C50A0E80C50B1F12001E7
:10144000BFF4F7AF090728BFA0E80C5048BF0CC095
:101450005DF804EB890028BF40F8042B08BF7047F3
:1014600048BF20F8022B11F0804F18BF00F8012B65
:1014700070477546FFF728FBAE46050069465346A0
:1014800020F00700854618B020B5FEF7E1FEBDE864
:1014900020404FF000064FF000074FF000084FF0DB
:1014A000000BAC46ACE8C009ACE8C009ACE8C00928
:1014B000ACE8C00921F007018D4670472DE9F041E5
:1014C0001F46044603260168072A01F4006004DB76
:1014D00008B116A505E016A503E008B115A500E0C2
:1014E00015A521F010002060A069C01EA0610FB1F9
:1014F000401EA0612046FEF7A1FF4FB1D4E90121B3
:1015000038469047206A401C2062C01C206206E0DA
:10151000206AFAE7D4E9012115F8010B9047761EFD
:10152000F8D22046FEF7A0FFBDE8F0814E414E0004
:101530006E616E00494E4600696E66002DE9F04707
:10154000814616468AB0354878440DC88DE80D00AE
:1015500032487844801C03AC0DC884E80D0041F685
:101560009B300844372190FBF1F290FBF1F5A5F197
:10157000800501FB12041B3C02D56442012000E0FF
:101580000020DFF898A080460027FA44AAF1BE0A9E
:101590000EE0E0070AD03246684607EB4701012318
:1015A0000AEB810101F047FC8DE8070064107F1C05
:1015B000002CEED1194F7F44AE3F19E0E80715D05B
:1015C00007EB04100DF1180A90E80E008AE80E00EF
:1015D000C068F04201D1981908903246012306A94B
:1015E00003A801F028FC03AB83E807006D10641C1E
:1015F000002DE3D14FF0010332466946B8F1000FE8
:1016000003A802D001F002FC01E001F014FCC9E9DA
:101610000001C9F808200AB0BDE8F087D41C00001A
:1016200010B50446AFF300802046BDE81040FEF739
:10163000FABD000001491820ABBEFEE726000200FB
:101640007047000041F21801C4F20201086840F43A
:101650000170086040F60001C4F20101086820F43E
:1016600070200860086840F48020086041F20C0196
:10167000C4F20201086840F400700860086820F4B1
:101680000070086042F20441C4F2010100200860C9
:1016900042F20841C4F2010101200860086840F0EC
:1016A00004000860FFE742F20840C4F2010000684D
:1016B0004007002801D5FFE7F5E742F23441C4F2C4
:1016C00001010420086042F23041C4F2010100200F
:1016D000086042F22C41C4F20101086042F210415C
:1016E000C4F20101086840F4E0400860704700005F
:1016F00042F20841C4F20101086840F001000860AC
:10170000FFE742F20040C4F20100006880070028B1
:1017100001D4FFE7F5E742F24C40C4F20100006853
:1017200080B2704781B00090FFE70098411E0091A1
:1017300008B1FFE7F9E701B07047000080B584B059
:10174000002002900190FFE7019813280FDCFFE7CB
:10175000FFF7CEFF01460298084402904FF4FA705A
:10176000FFF7E0FFFFE7019801300190ECE70298F6
:101770004CF6CD41CCF6CC41A0FB01100009ADF8F0
:101780000E00BDF80E0041F27731484340F6FD717E
:10179000CFF6C071A0FB0110000BADF80C00BDF935
:1017A0000C0004B080BD000080B584B0039040F20E
:1017B0006E20C2F200000078072813DCFFE740F239
:1017C0006F20C2F20000007840F26E21C2F20001E8
:1017D0000A78104400F007008DF80B0008780130FB
:1017E00008700CE040F26F21C2F2000108788DF819
:1017F0000B000878013000F007000870FFE79DF843
:101800000B1040F26E00C2F20000019000EB81105C
:1018100003993F22FEF796FD01989DF80B1000EB0F
:101820008111002081F83F0004B080BD81B000200C
:101830008DF80300FFE79DF80300072810DCFFE7A1
:101840009DF80300820140F26E01C2F20001002007
:101850008854FFE79DF8030001308DF80300EAE7A4
:1018600040F26E21C2F200010020087040F26F21A8
:10187000C2F20001087001B07047000080B59AB054
:1018800040F26E20C2F20000007888B9FFE743F210
:10189000D630C0F6000000F0B3FF43F2FA40C0F6C5
:1018A000000043F20251C0F6000100F043FA47E0A5
:1018B00043F25220C0F6000000F0A2FF00208DF895
:1018C0000700FFE79DF8070040F26E21C2F2000119
:1018D0000978884229DAFFE740F26F20C2F200005F
:1018E00000789DF80710084400F007008DF8060006
:1018F0009DF80700421C9DF8061040F26E00C2F2EF
:10190000000000EB811343F27931C0F6000102A818
:101910000090FEF7BFFC009800F072FFFFE79DF813
:10192000070001308DF80700CCE743F2FA40C0F61B
:10193000000043F24D41C0F6000100F0FBF9FFE763
:101940001AB080BD80B5012000F0EEF848F2A0602A
:10195000C0F20100FFF7E6FE80BD000080B582B056
:1019600040F61041C4F2010100910220086040F6E7
:10197000B8300190FFF7D6FE009A01984FF400317D
:101980001160FFF7CFFE02B080BD000080B582B0CD
:1019900000F03AF849F2E030C0F20400FFF7C2FE6E
:1019A00040F61041C4F201014FF48030086003207A
:1019B000009000F0ABF840F64050C0F20300FFF793
:1019C000B1FE009800F0A2F848F2A060C0F2010059
:1019D0000190FFF7A7FE009800F098F80198FFF734
:1019E000A1FE022000F092F80198FFF79BFE28204C
:1019F00000F09AF80C2000F097F8062000F094F818
:101A0000FFF7A0FF02B080BD41F21801C4F202014D
:101A1000086840F00800086040F60041C4F2010187
:101A2000086820F0FF000860086840F022000860A5
:101A300040F60441C4F20101086880B208600868F9
:101A40000022C2F222221043086040F61041C4F284
:101A500001014FF4803008604FF4003008604FF00F
:101A6000805008604FF0005008604FF080400860E0
:101A70004FF000400860704780B582B00190FFE7EA
:101A80000198007838B1FFE70198411C0191007876
:101A900000F066F8F4E702B080BD000080B588B0C1
:101AA0008DF81F00069100208DF80600FFE79DF8D5
:101AB00006000F281CDCFFE70698007868B1FFE7F6
:101AC0000698411C069100789DF80620511C8DF85F
:101AD00006100DF10701885409E09DF80620501CFE
:101AE0008DF806000DF1070120208854FFE7DEE79E
:101AF00000218DF817109DF81F0000F04DF80DF132
:101B00000700FFF7B9FF08B080BD000080B582B0C4
:101B10008DF807009DF8070000F00F0000F05AF85C
:101B2000FFF71CFF02B080BD80B582B08DF80700C2
:101B300040F61041C4F201014FF4803008609DF876
:101B400007000009FFF7E2FF9DF8070000F00F0013
:101B5000FFF7DCFF47F23050FFF7E4FD02B080BD35
:101B600080B582B08DF8070040F61041C4F2010143
:101B7000012008609DF807000009FFF7C7FF9DF8E6
:101B8000070000F00F00FFF7C1FF47F23050FFF7EA
:101B9000C9FD02B080BD000080B582B08DF807009D
:101BA0008DF806109DF8070028B9FFE79DF806009C
:101BB0008030009004E09DF80600C0300090FFE700
:101BC00000988DF805009DF80500FFF7ADFF02B005
:101BD00080BD000081B08DF803009DF80300C007B0
:101BE00040B1FFE740F61041C4F201014FF48050CC
:101BF000086007E040F61041C4F201014FF0805048
:101C00000860FFE79DF803008007002808D5FFE77C
:101C100040F61041C4F201014FF40050086007E0A3
:101C200040F61041C4F201014FF000500860FFE798
:101C30009DF803004007002808D5FFE740F6104153
:101C4000C4F201014FF48040086007E040F6104103
:101C5000C4F201014FF080400860FFE79DF80300E7
:101C60000007002808D5FFE740F61041C4F2010143
:101C70004FF40040086007E040F61041C4F2010153
:101C80004FF000400860FFE701B0704780B58EB0AC
:101C9000ADF83600BDF9360046F26761C6F26661FE
:101CA00080FB0112911001EBD27202EB8201A0EBDA
:101CB000410343F20B41C0F600010DF10A0001900F
:101CC000FEF7E8FA019A43F2E541C0F600010DF192
:101CD0002500FEF7DFFABDF93600B0F5C87F08DB56
:101CE000FFE743F2EB31C0F6000105A8FEF7D2FA98
:101CF00018E0BDF93600B0F5967F09DBFFE743F247
:101D00002041C0F6000105A81E22FEF7C3FA08E034
:101D100043F21341C0F6000105A81E22FEF7BAFAED
:101D2000FFE7FFE70DF1250005A900F003F80EB06D
:101D300080BD000080B582B0019000910199002023
:101D4000FFF7ACFE00990120FFF7A8FE02B080BDAE
:101D500040F60C01C4F20101086840F0020008607E
:101D6000086820F0010008607047000041F2180187
:101D7000C4F20201086840F00400086040F6000167
:101D8000C4F20101086820F0FF000860086840F014
:101D90003300086040F60C01C4F20101086820F02D
:101DA000030008607047000040F60C01C4F2010116
:101DB000086820F0030008607047000040F60C013E
:101DC000C4F20101086840F001000860086820F0D2
:101DD000020008607047000081B0ADF80200BDF954
:101DE0000200B0F5C87F0DDBFFE740F60C01C4F23E
:101DF0000101086840F002000860086820F0010056
:101E000008604BE0BDF90200B0F5967F38DBFFE7D4
:101E100040F26800C2F20000016801310160006810
:101E200047F2315188422AD3FFE740F26801C2F2FB
:101E300000010020086040F60C00C4F201000068B8
:101E40008007002809D5FFE740F60C01C4F2010124
:101E5000086820F00200086008E040F60C01C4F2B7
:101E60000101086840F002000860FFE740F60C013D
:101E7000C4F20101086820F001000860FFE70CE0EF
:101E800040F60C01C4F20101086840F0010008604E
:101E9000086820F002000860FFE7FFE701B0704724
:101EA00080B5B0B02E902D912C922B9300200290F3
:101EB00024902E9904A87F22FEF744FA02988DF808
:101EC0008F000390FFE7039904A8405CE0B1FFE7AF
:101ED000039904A8405C0D280CD0FFE7039904A8DF
:101EE000405C0A2806D0FFE7039904A8405C092853
:101EF00005D1FFE7039A04A920208854FFE7FFE7F4
:101F0000039801300390DEE704A8019000F05EFB27
:101F1000019800F047FB019843F2E931C0F6000157
:101F2000FEF70AFA2A90FFE72A990020009039B1BB
:101F3000FFE7249900200429B8BF01200090FFE7A3
:101F40000098C00780B1FFE72A98249A511C249179
:101F500025A941F8220043F2E931C0F60001002032
:101F6000FEF7EAF92A90DFE72498012834D1FFE749
:101F7000259843F23341C0F60001FEF70FFA18B975
:101F8000FFE702202F907BE0259843F25641C0F6F0
:101F90000001FEF703FA18B9FFE703202F906FE066
:101FA000259843F23D41C0F60001FEF7F7F918B954
:101FB000FFE704202F9063E0259843F23841C0F6F4
:101FC0000001FEF7EBF918B9FFE705202F9057E065
:101FD0004FF0FF302F9053E02498032804D0FFE700
:101FE0004FF0FF302F904BE025980078412804D126
:101FF000FFE72D990120087021E0259800785328EB
:1020000004D1FFE72D990220087017E02598007889
:102010004D2804D1FFE72D99032008700DE0259885
:102020000078442804D1FFE72D990420087003E0CC
:102030004FF0FF302F9023E0FFE7FFE7FFE7269800
:1020400029A90A22FEF73CF92C9908602998007802
:1020500020B1FFE74FF0FF302F9011E0279829A91A
:102060000A22FEF72DF92B9908602998007820B1F3
:10207000FFE74FF0FF302F9002E001202F90FFE7A5
:102080002F9830B080BD000080B543F23C20C0F6F0
:10209000000000F0B5FB43F20130C0F6000000F094
:1020A000AFFB43F2E520C0F6000000F0A9FB43F2CD
:1020B000C620C0F6000000F0A3FB43F2AD20C0F63E
:1020C000000000F09DFB43F28C20C0F6000000F001
:1020D00097FB43F2B930C0F6000000F091FB43F2E9
:1020E0009B30C0F6000000F08BFB43F23430C0F6AA
:1020F000000000F085FB43F23340C0F6000043F2DD
:102100004D41C0F60001FFF715FE80BD80B5D8B087
:102110005790002007908DF85B0155905490539094
:1021200057990DF1460008907F22FEF70BF90799A9
:1021300008988DF8C5100DF25B1155AA54ABFFF746
:10214000AFFE52905298022805D1FFE7FFF79CFF9F
:10215000FFF72AFE5AE15298032805D1FFE7FFF75F
:102160008DFBFFF721FE51E15298042815D1FFE7BE
:10217000FFF75CFB43F27A20C0F6000000F040FB62
:1021800043F2FA40C0F6000043F2CD41C0F6000130
:10219000FFF7D0FDFFF708FE38E15298052841D13E
:1021A000FFE7FFF7CBFA014640F26C00C2F20000F5
:1021B00006900180B0F9002046F26761C6F26661C0
:1021C00082FB01239A1002EBD3720492B0F9000053
:1021D00080FB0112911001EBD27101EB8101A0EBA8
:1021E0004100FEF7A5F8049A034643F2FE31C0F61B
:1021F00000010DF126000590FEF74CF8059800F05F
:10220000FFFA43F2E630C0F6000000F0F9FA069853
:10221000B0F90000FFF73AFD0698B0F90000FFF7AB
:10222000DBFDF3E05298012813D0FFE743F25D2075
:10223000C0F6000000F0E4FA43F2D540C0F600001A
:1022400043F22E41C0F60001FFF774FDFFF780FD59
:10225000DCE09DF85B01013801460391032800F2A0
:10226000AC800399DFE801F002264A6E5598549934
:1022700008445390559A549B53986946086043F21A
:102280007741C0F600013AA8FEF704F8559A549B2E
:1022900043F2A841C0F600010DF1D700FDF7FAFFA7
:1022A000539A43F2C641C0F600010DF1C600FDF796
:1022B000F1FF95E055985499401A5390559A549BC4
:1022C00053986946086043F28441C0F600013AA879
:1022D000FDF7E0FF559A549B43F29E41C0F6000182
:1022E0000DF1D700FDF7D6FF539A43F2C641C0F671
:1022F00000010DF1C600FDF7CDFF71E0559854992E
:1023000048435390559A549B53986946086043F24A
:102310006A41C0F600013AA8FDF7BCFF559A549BEC
:1023200043F2B241C0F600010DF1D700FDF7B2FF54
:10233000539A43F2C641C0F600010DF1C600FDF705
:10234000A9FF4DE0549898B9FFE743F21A30C0F660
:10235000000000F055FA43F24340C0F6000043F29B
:10236000FA31C0F60001FFF7E5FCFFF7F1FC4DE0A4
:102370005598549990FBF1F05390559A549B53986B
:102380006946086043F29141C0F600013AA8FDF7A2
:1023900081FF559A549B43F2BC41C0F600010DF1F8
:1023A000D700FDF777FF539A43F2C641C0F600010C
:1023B0000DF1C600FDF76EFF12E043F25D20C0F69E
:1023C000000000F01DFA43F2D540C0F6000043F2D1
:1023D0002E41C0F60001FFF7ADFCFFF7B9FC15E098
:1023E0003AA8029000F00CFA43F2E630C0F6000082
:1023F00000F006FA0298FFF7D7F90DF1D7000DF1BA
:10240000C601FFF797FCFFF7D9FCFFE758B080BD86
:1024100080B500F001F880BD84B0002003900290E8
:1024200041F20001C4F20201086840F48030086003
:10243000FFE741F20000C4F20200006800F400303F
:102440000290039801300390FFE702990020019069
:1024500039B9FFE70398B0F5A06018BF01200190DB
:10246000FFE70198C0070028E3D1FFE741F2000031
:10247000C4F2020000688003002803D5FFE70120B2
:10248000029002E000200290FFE70298012851D15B
:10249000FFE742F20001C4F20201086840F01000B8
:1024A0000860086820F007000860086840F0020033
:1024B000086041F20401C4F202010091086808605A
:1024C00008680860086840F480600860086820F4C4
:1024D0007C100860086840F4E810086041F20001D0
:1024E000C4F20201086840F080700860FFE741F222
:1024F0000000C4F2020000688001002801D4FFE758
:10250000F5E741F20401C4F20201086820F003007B
:102510000860086840F002000860FFE741F204002C
:10252000C4F20200006800F00C00082801D0FFE7A8
:10253000F4E700E0FFE704B07047000080B541F227
:102540000002C4F20202106840F00100106041F283
:102550000401C4F2020108680023CFF6FF0318400B
:10256000086010684FF6FF73CFF6F66318401060EE
:10257000106820F480201060086820F4FE000860D5
:1025800041F20801C4F202014FF41F000860FFF796
:102590003FFF4EF60851CEF200014FF00060086098
:1025A00080BD000080B582B00190FFE701980078FF
:1025B00050B1FFE701980078FDF75CFE01990870C3
:1025C000019801300190F1E702B080BD84B0039022
:1025D000039802900398019001208DF80300FFE713
:1025E0000298007830B3FFE702980078202805D0E1
:1025F000FFE70298007809280ED1FFE79DF8030055
:1026000048B9FFE70199481C01902020087001207B
:102610008DF80300FFE709E00298007801994A1C51
:102620000192087000208DF80300FFE70298013046
:102630000290D5E70198039988420AD9FFE70198EB
:1026400010F8010C202804D1FFE70198013801900F
:10265000FFE701990020087004B0704780B582B090
:1026600044F20040C4F200000088800600286ED5C5
:10267000FFE744F20440C4F2000000888DF8070030
:102680009DF80700082805D0FFE79DF807007F2880
:1026900016D1FFE740F2F120C2F2000000780128D5
:1026A0000EDBFFE740F2F121C2F2000108780138A9
:1026B000087043F23820C0F6000000F0A1F846E0B0
:1026C00040F27020C2F20000007808B1FFE73EE05F
:1026D0009DF807000D2805D0FFE79DF807000A28A0
:1026E00019D1FFE743F2E630C0F6000000F088F8A9
:1026F00040F2F121C2F200010B7840F27122C2F2E5
:1027000000020020D054087040F27021C2F2000193
:10271000012008701BE040F2F120C2F200000078B6
:102720007E2813DCFFE79DF8070040F2F123C2F298
:1027300000031A78511C197040F27121C2F2000195
:1027400088549DF8070000F043F8FFE7FFE702B068
:1027500080BD000080B541F21801C4F20201086892
:1027600040F00400086041F21C01C4F20201086854
:1027700040F40030086040F60001C4F2010108682E
:1027800020F470600860086840F400700860086811
:1027900040F400600860086820F470400860086831
:1027A00040F48040086044F20841C4F2000140F661
:1027B000A660088044F20C41C4F200012C2008807D
:1027C000088840F400500880262000F02BF880BDD7
:1027D00081B08DF80300FFE744F20040C4F200002E
:1027E00000880006002801D4FFE7F5E79DF8030004
:1027F00044F20441C4F20001088001B070470000B7
:1028000080B582B00190FFE70198007838B1FFE70A
:102810000198411C01910078FFF7DAFFF4E702B05C
:1028200080BD000081B08DF803009DF903000028F1
:102830000ED4FFE79DF9031001F01F020120904024
:102840004A094EF20011CEF2000141F82200FFE7E2
:1028500001B0704780B5A4B0002023900290FFF72C
:102860006DFEFFF777FFFFF791F8FFF77FFAFEF7AE
:10287000E9FE43F24E30C0F60000FFF7C1FF43F21D
:102880008230C0F60000FFF7BBFF43F2EE40C0F617
:10289000000043F25E41C0F60001FFF74BFAFFE78C
:1028A0000298411C02914CF25131884215D3FFE746
:1028B00000200290FEF742FF014640F26C00C2F297
:1028C000000001900180B0F90000FFF7DFF90198E6
:1028D000B0F90000FFF780FAFFE740F27020C2F283
:1028E00000000078A8B1FFE740F27121C2F20001B8
:1028F00003A800907F22FDF725FD009800218DF8A8
:102900008B1040F27022C2F200021170FFF7FEFB42
:10291000FFE7C5E75FEA400C08BF91F0000F4FEA00
:102920008C234FEAC12243EA51514FEA1C5018BF91
:1029300000F5F0404FEA300018BF41F000415FEA77
:102940006C5C00F02980BCF1FF3F08BF40F0804084
:102950007047130C06BF12044FF0100C4FF0000C20
:10296000130E04BF12020CF1080C130F04BF120166
:102970000CF1040C930F04BF92000CF1020CD30F66
:1029800004BF52000CF1010C11464FF00002A0F1FF
:102990001F00A0EB0C00704711F0004F08BF7047FC
:1029A00031F000413FF4D5AF0B0C06BF09044FF0E6
:1029B000100C4FF0000C0B0E04BF09020CF1080CB8
:1029C0000B0F04BF09010CF1040C8B0F04BF89002D
:1029D0000CF1020CCB0F04BF49000CF1010CCCF13F
:1029E000200322FA03F341EA030102FA0CF2A0EBFE
:1029F0000C0000F10100704723F07F4720F07F4C6E
:102A000080EA030000F00040ACEB070303F57C53C1
:102A100003F1FF032DE9804909B44FEA144324EA86
:102A200003484FEA154B25EA0B4E0FF2042606EB3E
:102A300013273E7803FB0667C7F5000707FB06F67A
:102A40004FEAD64606F102064FEA543707FB066CFA
:102A5000CCF1005C4FEA1C472CEA074C0CFB06F556
:102A600007FB06F404EB15464FEA961649085FEAA1
:102A7000320234BF00204FF000404FEAD13706FB4E
:102A800007FC4FEA1C4C0CFB0BF7D21B03FB0CF7AB
:102A900061EB07010CFB0EF7B0EB074072EB17423E
:102AA0000CFB08F734BFA2EB0742B2EB074261EB25
:102AB00017414FEA0C444FEA910706FB07FC4FEA27
:102AC0001C4C0CFB0BF7B0EBC74072EB573203FB0F
:102AD0000CF734BFA2EBC742B2EBC74261EB5731F0
:102AE0000CFB0EF7B0EBC70072EB57720CFB08F74C
:102AF00034BFA2EBC702B2EBC70261EB57714FEADA
:102B0000816141EA92114FEA826242EA90124FEAF1
:102B1000806004EBCC04039F4FEAD13706FB07FC2F
:102B20004FEA1C4C0CFB0BF7D21B03FB0CF761EBC1
:102B300007010CFB0EF7B0EB074072EB17420CFBE2
:102B400008F734BFA2EB0742B2EB074261EB174133
:102B50004FEA8C5504EB9C244FEA910706FB07FCD7
:102B60004FEA1C4C0CFB0BF7B0EBC74072EB573233
:102B700003FB0CF734BFA2EBC742B2EBC74261EBD9
:102B800057310CFB0EF7B0EBC70072EB57720CFB22
:102B900008F734BFA2EBC702B2EBC70261EB577173
:102BA0004FEA816141EA92114FEA826242EA901251
:102BB0004FEA806015EB4C2544F100044FEAD13711
:102BC00006FB07FC4FEA1C4C0CFB0BF7D21B03FB6C
:102BD0000CF761EB07010CFB0EF7B0EB074072EB53
:102BE00017420CFB08F734BFA2EB0742B2EB0742D7
:102BF00061EB17414FEA813141EA92414FEA82325B
:102C000042EA90424FEA80304FEA0C7615EB1C15F1
:102C100044F1000448EA03434EEA0B484FF0000E2B
:102C2000B2EB080C71EB030724BF624639464EEB4A
:102C30000E0E4FF0000B0018524149414BEB0B0BAD
:102C4000B2EB080C71EB03077BF1000B24BF62466B
:102C500039464EEB0E0E4FF0000B00185241494121
:102C60004BEB0B0BB2EB080C71EB03077BF1000B8A
:102C700024BF624639464EEB0E0E51EA020718BFDA
:102C800046F0010616EB0E7655F1000254F10001F4
:102C900003D5BDE88901BDE80088BDE88901BDE82C
:102CA0000048B619524141EB0101A3F101037047FD
:102CB00080807F7E7D7C7B7A797877767675747379
:102CC000727171706F6E6E6D6C6C6B6A6A69686838
:102CD000676666656464636362616160605F5F5ECE
:102CE0005E5D5D5C5C5B5B5A5A5959585857575644
:102CF00056555555545453535252525151505050A9
:102D00004F4F4F4E4E4D4D4D4C4C4C4B4B4B4A4AFA
:102D10004A4949494848484747474746464645453E
:102D20004544444444434343434242424241414177
:102D30009C46002B30D477002BD04FEA37071CB5C8
:102D400003B44FF010004FF01001BAF1000F06D09D
:102D5000BCF1000FDCBF40F0080040F008014FF06C
:102D600000000FBCBDE810400BF1010BBBF1010FDF
:102D700008BF5FEA170722BF12F1010211F101013A
:102D80004FF0004143F1000300F0004043EA00002F
:102D90007047F9D35708D0E746EA06464FEA164689
:102DA00013F1400F1FDD13F1200FDFBF16430A465A
:102DB000002120335B42BED0C3F1200746EA06461D
:102DC0004FEA164602FA07F746EA070622FA03F226
:102DD000C3F1200701FA07F742EA070221FA03F1DB
:102DE0004FF00003A7E746EA020646EA06464FEA26
:102DF000164646EA0106BCBF46EA0646360C4FF0C8
:102E000000034FF000024FF0000194E72DE9804CE1
:102E100070B49A46934691E8380007C831EA400CEE
:102E200048BF34EA430C03D5FFF7E6FDFFF780FF08
:102E3000F0BCBDE8008C2DE9804C70B49A469346F6
:102E400091E8380007C810F0804F08BF13F0804F9A
:102E500003D100F005F8FFF76BFFF0BCBDE8008C74
:102E600020F07F4723F07F4C80EA030000F0004011
:102E700007EB0C03A3F57C53A3F1FE0392F0000FC4
:102E800000F0B38095F0000F00F077802DE9014944
:102E90004FEA114021EA00484FEA144624EA064767
:102EA00000FB06FC08FB06F607FB08F818EB0648D3
:102EB0004CEB164C00FB07F718EB07484CEB1740A0
:102EC0004FEA124B22EA0B4E4FEA154625EA064717
:102ED0000BFB06FC0EFB06F607FB0EFE1EEB064E7A
:102EE0004CEB164C0BFB07F71EEB074E4CEB174B4E
:102EF00018EB0B0840F1000018EB0E0B58EB000824
:102F000040F100008F1A4FF000014FF000063CBF67
:102F1000C943661B14BFB5EB040C00213CBFC94379
:102F2000F61B4FEA174427EA04454FEA1C472CEAF0
:102F3000074C04FB076205FB07F70CFB05F616EBD5
:102F4000074642EB174204FB0CFC16EB0C4642EB27
:102F50001C421BEB060658EB020241414EEA8E0E64
:102F600046EA9E0601D5BDE80189B619524141EBFA
:102F70000101A3F10103BDE801894FEA144524EAE8
:102F800005464FEA114721EA074C05FB07F406FB0B
:102F900007F70CFB06F111EB074144EB174405FB67
:102FA0000CFC11EB0C4144EB1C444FEA124722EAA3
:102FB000074C05FB07F206FB07F70CFB06F616EBC2
:102FC000074642EB174205FB0CFC16EB0C4642EBA6
:102FD0001C456A1854F1000148BF7047B6195241A8
:102FE00041EB0101A3F10103704795F0000F37D0C9
:102FF0004FEA114221EA02464FEA144724EA074CFD
:1030000002FB07F106FB07F70CFB06F414EB074481
:1030100041EB174102FB0CFC14EB0C4441EB1C414F
:103020004FEA154725EA074C02FB07F506FB07F7B1
:103030000CFB06F616EB074645EB174502FB0CFCAE
:1030400016EB0C4645EB1C42121951F1000148BF2A
:103050007047B619524141EB0101A3F101037047DA
:103060004FEA144524EA05464FEA114721EA074C86
:1030700005FB07F106FB07F70CFB06F212EB074214
:1030800041EB174105FB0CFC12EB0C4251EB1C41D0
:103090004FF0000648BF7047921841EB0101A3F1C1
:1030A00001037047490050EAC12018BF04204A0DAF
:1030B00018BF40F0010040F2FF72B2EB515F08BF51
:1030C00040F00200012808BF0520704730380A2868
:1030D00001D20120704700207047000010B5002980
:1030E0000AD00878002807D005487844FDF756F93B
:1030F000002801D0002010BD0248784410BD000017
:103100003E0400003604000010B500290AD00878FB
:10311000002807D005487844FDF740F9002801D081
:10312000002010BD0248784410BD000022050000B8
:103130001A050000FDF746BEFDF77ABF000000004B
:1031400000000000303132333435363738394142EF
:1031500043444546403058003031323334353637F9
:1031600038396162636465664030780004000008A5
:1031700000000000000000020001000010303132A9
:103180003334353637383961626364656678700088
:10319000303132333435363738394142434445468D
:1031A0005850000002400000000000A00000000095
:1031B00005400000000000C8000000000C400000B6
:1031C0000000409C00000000194000000020BCBE30
:1031D0000000000034400000BFC91B8E0000000446
:1031E000B5400000504BCFD06607E2CF0100000091
:1031F0006C4100003E8251AADFEEA73401000000BE
:10320000D9420000DCB5A0E23A301F97FFFFFFFF74
:10321000B4450000FD25A0C8E9A3C14FFFFFFFFF93
:10322000FF3F00000000008000000000FF3F0000A2
:10323000000000800000000008200800417661695D
:103240006C61626C6520636F6D6D616E64733A0DC5
:103250000A00486973746F72793A0D0A00496E76F4
:10326000616C696420636F6D6D616E642E205479AA
:1032700070652048454C500D0A00486973746F72A0
:103280007920636C65617265640D0A0054454D5088
:1032900020202020202020202D2073686F7720748C
:1032A000656D70657261747572650D0A00444956EA
:1032B0002061206220202020202D206469766973FF
:1032C000696F6E0D0A004D554C2061206220202050
:1032D00020202D206D756C7469706C696361746950
:1032E0006F6E0D0A0053554220612062202020207D
:1032F000202D207375627472616374696F6E0D0A9C
:10330000004144442061206220202020202D2061A3
:1033100064646974696F6E0D0A004572726F723A67
:10332000206469766973696F6E206279207A6572AC
:103330006F0D0A0048454C502020202020202020DE
:103340002D2073686F772068656C700D0A000D0A78
:1033500053544D33322043616C63756C61746F72EA
:10336000202B2054656D7065726174757265204DF7
:103370006F6E69746F720D0A002564292025730D24
:103380000A00547970652048454C5020666F7220C1
:10339000636F6D6D616E64730D0A00434C4541525D
:1033A000202020202020202D20636C656172206861
:1033B0006973746F72790D0A00484953544F52591A
:1033C00020202020202D2073686F77206869737477
:1033D0006F72790D0A00486973746F72792069738E
:1033E00020656D7074790D0A00200021212143525F
:1033F00049544943414C21212100623D300054652C
:103400006D70657261747572653A2025642E25644D
:103410002043004E6F726D616C203C202564430098
:103420005741524E494E4721203E2564430054796E
:1034300070652048454C500054454D5000434C4564
:10344000415200444956204552524F52007365651F
:10345000205541525400484953544F525900546525
:103460006D70202B2043616C63002564202A202589
:1034700064203D202564002564202B202564203D08
:10348000202564002564202D202564203D2025640E
:10349000002564202F202564203D202564005355FD
:1034A00042202564202564004144442025642025D1
:1034B00064004D554C202564202564004449562065
:1034C0002564202564005245533D256400636C65E6
:1034D0006172656400496E76616C696420636F6D2A
:1034E0006D616E640054656D703A2025730053540D
:1034F0004D333220526561647900486973746F728C
:103500007900656D70747900543600080000002061
:1035100004000000280100085836000808000020B8
:10352000F008000044010008100100004300000002
:10353000F8FFFFFF004040404040404040404141D4
:103540004141414040404040404040404040404078
:103550004040404040050202020202020202020212
:10356000020202020220202020202020202020020F
:10357000020202020202909090909090101010109F
:10358000101010101010101010101010101010103B
:1035900002020202020288888888888808080808CF
:1035A000080808080808080808080808080808089B
:1035B00002020202400000000000000000000000C3
:1035C00000000000000000000000000000000000FB
:1035D00000000000000000000000000000000000EB
:1035E00000000000000000000000000000000000DB
:1035F00000000000000000000000000000000000CB
:1036000000000000000000000000000000000000BA
:1036100000000000000000000000000000000000AA
:10362000000000000000000000000000000000009A
:1036300000000000000000001C000000430000002B
:10364000F8FFFFFF0C0000000E0000000F0000005C
:083650002E0000000000000044
:0400000508000235B8
:00000001FF
